:100000000C9425050C9442050C9442050C9455283B
:100010000C9442050C9442050C9442050C94420544
:100020000C9442050C9442050C9426120C9445162F
:100030000C9446210C9442050C9442050C94420504
:100040000C9442050C9442050C9442050C94420514
:100050000C9442050C94FF120C9442050C9442053A
:100060000C9442050C9442050C9442050C944205F4
:100070000C9442050C9442050C9442050C944205E4
:100080000C9442050C9442050C9442050C944205D4
:100090000C9442050C9442050C9442050C944205C4
:1000A0000C9442050C9442050C944205202020201B
:1000B0006162636465666768696A6B6C6D6E6F70B8
:1000C0007172737475767778797A31323334353664
:1000D00037383930524542545F2D3D5B5D5C233BE0
:1000E00027602C2E2F2020202B0014001A0008003F
:1000F00015001700390004001600070009000A0067
:10010000E1001D001B0006001900050000000000B2
:100110000000E000E3002C002F42130012000C004E
:1001200018001C00340033000F000E000D000B00FF
:10013000E600380037003600100011000000000013
:10014000000029412A0028002B001E001F0020006B
:10015000210022000000000000003A003B003C00AB
:10016000E1000000000043004400450000000000E2
:100170000000E300E0002C0000002700260025001E
:1001800024002300000000004F00520051005000E6
:10019000000000000000000000000000000000005F
:1001A000000000002A0028002B001E021F0220026F
:1001B00021022202000000000000000000000000F8
:1001C000E1000000000000000000870000000000C7
:1001D0000000E300E0002C000100270226022502B7
:1001E000240223023500310030002F002E002D00A4
:1001F0003502310230022F022E022D0200000000D3
:100200000000E6002A00280000DA0281FFD9F1DBB5
:1002100020A4A62EAF00A0C0D30000A1C8D3000028
:10022000AED580A81F408D142000556E6465660011
:1002300041646A757374005261697365004C6F772D
:1002400065720044656661756C74004C6179657215
:100250003A20003A002C206B007800808182838451
:1002600085868788898A8B8C8D8E8F9091929394C6
:10027000A0A1A2A3A4A5A6A7A8A9AAABACADAEAF06
:10028000B0B1B2B3B4C0C1C2C3C4C5C6C7C8C9CA7D
:10029000CBCCCDCECFD0D1D2D3D40000010101013F
:1002A0000101010101020202020202020202030331
:1002B0000303030303030404040404040405050501
:1002C00005050606060606070707070708080808C3
:1002D000090909090A0A0A0B0B0B0C0C0C0D0D0D70
:1002E0000E0E0E0F0F0F1010111111121213131406
:1002F00014151516161717181819191A1A1B1B1C7E
:100300001D1D1E1E1F2020212222232424252626D7
:10031000272829292A2B2C2D2D2E2F30313232330C
:100320003435363738393A3B3C3D3E3F4041424315
:100330004445464748494A4C4D4E4F5051535455F9
:100340005658595A5B5D5E5F616264656668696BA9
:100350006C6D6F7072737577787A7B7D7E80828327
:100360008587888A8C8E8F91939596989A9C9EA06B
:10037000A2A3A5A7A9ABADAFB1B3B5B7BABCBEC078
:10038000C2C4C6C9CBCDCFD1D4D6D8DBDDDFE2E441
:10039000E7E9EBEEF0F3F5F8FAFDFF00AF00AE058C
:1003A000010902A10185020901A10005091901291C
:1003B000081500250195087501810205010930091C
:1003C000311581257F95027508810609381581252B
:1003D0007F950175088106050C0A38021581257F75
:1003E000950175088106C0C005010980A10185033A
:1003F00019012AB700150126B70095017510810073
:10040000C0050C0901A101850419012AA0021501EA
:1004100026A002950175108100C005010906A10101
:100420008506050719E029E71500250195087501DE
:1004300081020507190029EF1500250195F07501C6
:10044000810205081901290595057501910295019B
:1004500075039101C005010906A101050719E029ED
:10046000E715002501950875018102950175088140
:10047000010507190029FF150026FF0095067508DC
:10048000810005081901290515002501950575014B
:100490009102950175039101C009023B0002010020
:1004A000A0FA090400000103010100092111010063
:1004B000012244000705810308000109040100012D
:1004C0000300000009211101000122B60007058286
:1004D0000320000112010002000000085346010041
:1004E0000100010200010C0343006F0072006E0066
:1004F00065000000100366006F006F007300740059
:1005000061006E0000000403090400000000000008
:100510003E5B4F5B3E003E6B4F6B3E001C3E7C3EA5
:100520001C00183C7E3C18001C577D571C001C5EAC
:100530007F5E1C0000183C180000FFE7C3E7FF00C7
:10054000001824180000FFE7DBE7FF0030483A06F8
:100550000E00262979292600407F05050700407FE7
:1005600005253F005A3CE73C5A007F3E1C1C080012
:10057000081C1C3E7F0014227F2214005F5F005F76
:100580005F0006097F017F00006689956A00606050
:100590006060600094A2FFA2940008047E0408003A
:1005A00010207E20100008082A1C0800081C2A08B9
:1005B00008001E10101010000C1E0C1E0C0030380D
:1005C0003E383000060E3E0E06000000000000001F
:1005D00000005F000000000700070000147F147F88
:1005E0001400242A7F2A120023130864620036496B
:1005F00056205000000807030000001C22410000A4
:100600000041221C00002A1C7F1C2A0008083E080A
:10061000080000807030000008080808080000008A
:10062000606000002010080402003E5149453E0071
:1006300000427F4000007249494946002141494D2E
:1006400033001814127F10002745454539003C4AF5
:10065000494931004121110907003649494936000D
:10066000464949291E0000001400000000403400E3
:100670000000000814224100141414141400004156
:10068000221408000201590906003E415D594E003E
:100690007C1211127C007F49494936003E4141419C
:1006A00022007F4141413E007F49494941007F0985
:1006B000090901003E41415173007F0808087F008D
:1006C00000417F4100002040413F01007F0814228B
:1006D00041007F40404040007F021C027F007F04B9
:1006E00008107F003E4141413E007F090909060094
:1006F0003E4151215E007F0919294600264949499A
:10070000320003017F0103003F4040403F001F20B3
:1007100040201F003F4038403F006314081463002E
:100720000304780403006159494D4300007F4141AF
:100730004100020408102000004141417F000402F2
:100740000102040040404040400000030708000050
:100750002054547840007F284444380038444444AE
:100760002800384444287F003854545418000008A6
:100770007E0902001824241C78007F0804047800F5
:1007800000447D4000002040403D00007F10284490
:10079000000000417F4000007C04780478007C0861
:1007A000040478003844444438007C182424180099
:1007B000182424187C007C0804040800485454546D
:1007C000240004043F4424003C4040207C001C20C2
:1007D00040201C003C4030403C004428102844008D
:1007E0004C9090907C004464544C44000008364186
:1007F0000000000077000000004136080000020100
:10080000020402003C2623263C00000000000000F9
:1008100000000000000000000000C0E0F0F8F81840
:1008200000C0F0FCFEFFFFFFFFFFFFFF7E000000A7
:1008300000000000000080C0E0E0E0E0E0E0E0E078
:10084000C0800000000080C0E0E0E0E0E0E0E0E028
:10085000C080000000E0E0C0C0E0E0E0E00000E0B8
:10086000E0C0C0E0E0E0E0E0C0800000000080C048
:10087000E0E0E0E0E0E0E0E0C08000000000000038
:100880000000000000000000E0F0F0F0E0ECEEF707
:10089000F37020007C7C7C7E007E7E7E7F7F7F00EC
:1008A0000080C0E07E5B4F5BFEC00000C000DCD774
:1008B000DEDEDED7DC00C00000000000000000002B
:1008C0000000000000000000000000000000000028
:1008D000000000F8FCFEFFE000FFFFFFFFFFFF80CD
:1008E000FFFFFFFFFFFFFFFFFF1F070100000000EA
:1008F0000000000000FFFFFF8100000000000081F9
:10090000C3C3C30000FFFFFF81000000000000819F
:10091000FFFFFF0000FFFFFF01000000000000FFDD
:10092000FFFF010000000001FFFFFF0000FFFFFFCD
:100930009D1C1C1C1C1C1C9DDFDFDF000000000038
:1009400000000000000000000F1F3F7F7F7F7F7FBF
:100950003F1E0C001F1F1F3F003F3F3F7F7F7F0058
:10096000307B7F7830202030787F3B0003000F7F82
:100970000F0F0F7F0F0003000000000000000000B9
:100980000000000000000000000000000000000067
:10099000000000030F1F3F3F3F3F1F1F3F3F7F7F70
:1009A0007F3F3F1F3F7F7F7F7F7C7878381C0F0021
:1009B00000000000000001030707070707070707FB
:1009C00003010000000001030707070707070707E7
:1009D00003010000000707070000000000000007F7
:1009E00007070000000000000707070000000103E0
:1009F00007070707070707070301000000000000BB
:100A000000000000000000000000000000000000E6
:100A100000000000000000000000000000000000D6
:100A200000000000000000000000000000000000C6
:100A300000000000000000000000000000000000B6
:100A40000000000000000000000011241FBECFEFD6
:100A5000DAE0DEBFCDBF11E0A0E0B1E0EEE0F6E508
:100A600002C005900D92A838B107D9F725E0A8E893
:100A7000B1E001C01D92A93BB207E1F70E946D21D0
:100A80000C94B12A0C940000482F2091AA03909155
:100A9000710357E0291302C080E0089530E0529FAF
:100AA000F001539FF00D1124EE58FC4F8181681323
:100AB00006C08081481303C085818111EECF2F5F6E
:100AC0003F4F2770E7CFFC01AC014C5F5F4F8FEFCA
:100AD00091E32191822728E030E087FF09C0880F49
:100AE000892721503109C9F7E417F50791F70895CF
:100AF000880FF7CFE8EDF0E080818E7F8083109241
:100B0000E2001092DA001092E100A0EEB0E08C91C9
:100B100081608C9380818F77808319BCA7EDB0E0D2
:100B20008C918E7F8C9380818F7E80831092420384
:100B300008952091E4003091E50095E6A901209107
:100B4000EC00822F817020FF06C08091E80080FFBA
:100B500006C080E008952091E80022FD1AC080912F
:100B60006703882389F0853089F08091EB0085FD4B
:100B70000FC02091E4003091E50042175307F9F2CD
:100B80009150E1F684E0089582E0089583E00895AD
:100B900081E008958091690387FF13C08091E80088
:100BA00082FF06C08091E8008B778093E80004C044
:100BB000809167038111F2CF0895809167038823A4
:100BC000D9F38091E80080FFF8CF8091E8008E771C
:100BD000ECCF982F9093E900242F762F50E08917BF
:100BE00031F07091EC002091ED005091F00021FD6A
:100BF00007C09F5F973071F78093E90081E0089507
:100C00003091EB003E7F3093EB003091ED003D7F63
:100C10003093ED003091EB0031603093EB00709336
:100C2000EC002093ED005093F0002091EE0027FDA2
:100C3000E0CF80E00895B0E0A0E0E1E2F6E00C94BF
:100C40008F29C8EDD0E088818F7E8883E7EDF0E0C2
:100C500080818160808384E082BF81E08093420351
:100C600088818E7F888302EE10E0F8011082109256
:100C7000DA0081EEC82ED12CF601108288818F77A0
:100C8000888388818068888388818F7D888319BC68
:100C90001092670310926803109266031092650326
:100CA00090EEE92EF12CF70180818B7F8083888183
:100CB0008160888342E060E080E00E94E905F601FF
:100CC00080818E7F8083F801808181608083808134
:100CD00088608083F70180818E7F80838881806136
:100CE0008883CDB7DEB7E8E00C94AB29FC01809196
:100CF0006F039091700386179707A0F06115710537
:100D000029F49091E8009E779093E80090E06115B7
:100D1000710551F4911108C08091E80082FF34C040
:100D200080E00895BC01F2CF809167038823C1F170
:100D30008530C1F18091E80083FD30C08091E800EA
:100D400082FDEACF8091E80080FFE1CF8091F3003F
:100D50002091F200382F6115710519F02830310506
:100D600058F091E02830310509F090E02091E8003A
:100D70002E772093E800CBCF81918093F1006150D2
:100D800071092F5F3F4FE7CF80916703882341F0C0
:100D9000853041F08091E80083FFBECF81E0089567
:100DA00082E0089583E0089580914403089587E7E1
:100DB00097E7909301088093000888E19AE00FB6C6
:100DC000F894A895809360000FBE90936000FFCFC9
:100DD0002FB7F89460913C0370913D0380913E03DE
:100DE00090913F032FBF0895209138012223C9F02D
:100DF0002091400327FF15C0E62FE695E695E6957E
:100E0000EE31D8F4E80FF92FF11D677021E030E0E2
:100E100001C0220F6A95EAF7209582812823228358
:100E20000895FC01329608962191621303C0DF01F8
:100E300011971C92E817F907B9F708952091380126
:100E40002223C1F02091400327FF14C0E62FE6952E
:100E5000E695E695EE31F8F4E80FF92FF11D67708D
:100E600021E030E001C0220F6A95EAF78281822BEF
:100E700082830895FC0132962FEF30E04191641790
:100E800051F02F3F19F4411101C0232F3F5F36303D
:100E9000A9F72F3F09F40895820F911D27FD9A9518
:100EA000FC0162830895A3E0B0E0E9E5F7E00C946B
:100EB00095292091390330913A0328173907A1F079
:100EC00090933A0380933903E0913703F09138030C
:100ED000309751F024E029839B838A830680F78131
:100EE000E02DCE01019609952396E2E00C94B129FC
:100EF000A3E0B0E0EEE7F7E00C94952920913503EC
:100F00003091360328173907A1F090933603809368
:100F10003503E0913703F0913803309751F023E027
:100F200029839B838A830680F781E02DCE01019679
:100F300009952396E2E00C94B129FA01811101C0D0
:100F4000FB010995089580912703982F9E7F71F4E6
:100F500080912703817082608093270380912A0308
:100F6000893718F088E780932A030895843080F742
:100F7000F5CF8091770280FD16C081FD16C082FDFD
:100F800016C0809176028823A1F0883280F428E090
:100F9000829FC001112468E270E00E94C829862F58
:100FA000672B39F0089582E0089584E0089588E081
:100FB000089581E008958091770280FD14C081FD3D
:100FC00014C082FD16C080917502882381F08E3195
:100FD00080F420E5829FC00111246EE170E00E9440
:100FE000C829862F089584E1089588E2089588E04D
:100FF000089580E50895282F35EB2303C0011124BF
:1010000097FF04C080589109892F089580589F4FF9
:10101000FBCF80E00895F894E82FE295EF70F0E0C0
:1010200031A1282F2F7081E090E001C0880F2A9510
:10103000EAF7982F9095932391A392A1892B82A3ED
:10104000789408959091400392FF10C041E0282FBA
:101050002471243009F040E031E0282F2871283035
:1010600009F030E0431711F02CE0822793FF10C005
:1010700041E0282F2471243109F040E031E0282F8D
:101080002871283109F030E0431711F02CE0822755
:101090003091410330FF10C051E0282F21712130E1
:1010A00009F050E041E0282F2871283009F040E095
:1010B000541711F029E0822731FF10C041E0282F9A
:1010C0002171213109F040E031E0282F28712831C9
:1010D00009F030E0431711F029E0822794FD877E64
:1010E000089582389105B9F1B0F48133910509F47E
:1010F0007DC048F48932910509F46DC08A329105AA
:1011000009F47BC008958533910509F45FC08933E4
:10111000910509F10895833E9105D9F138F4803E97
:10112000910529F1823E910579F10895863E910558
:10113000D9F1873E910509F43EC0843E910541F501
:101140002091410321FF24C08091400384FD19C0F8
:1011500087EE90E0089520914003237009F05AC073
:101160002091410323FF14C089E290E0089520916B
:10117000400320FD38C03091410330FF09C024FFF7
:1011800043C090E080E008952091400322FDF7CF16
:1011900008952091400322FD3AC03091410330FD73
:1011A00039C024FFF5CFEDCF2091400323FFF0CFCE
:1011B00024FDE7CFCDCF2091400323FD2EC03091F9
:1011C000410331FFEECF84EE90E00895209140037B
:1011D00025FFDECFC9CF2091400325FD21C02091FE
:1011E000410323FFD5CF89E390E0D2CF2091400384
:1011F00026FFCECF8AE290E008952091400326FF9B
:10120000C7CF81E390E0089583EE90E0089582EEE9
:1012100090E0089580EE90E0089586EE90E00895C5
:1012200085E390E00895972F7830B8F46630A8F4FD
:101230008330B0F470E026E0929F600D711D1124A0
:10124000FB0190E3899FE00DF11D1124EE0FFF1FBC
:10125000E851FF4F85919491089580E090E00895C2
:1012600081E0FCCF1F93CF93DF930E947108EC01C4
:10127000C11580E5D807F0F5C11580E4D80708F05E
:101280009CC0C03ED10520F5CD3CD10508F082C000
:10129000C83AD10578F4C53AD10508F073C0C13019
:1012A000D10519F1209709F1C430D105F0F4D0E04F
:1012B000C0E01BC0C33CD105D0F7C85AD0E0CC0F6A
:1012C000DD1FC45CDE4F0990D881C02DD4640DC0F1
:1012D000C11580E2D80708F0D1C0C11581E0D80758
:1012E00008F05AC0C83ED10510F7CE01DF91CF916A
:1012F0001F910895C03682E5D80718F5C03482E5FD
:10130000D80708F06BC0C03282E5D80708F05FC08C
:10131000C11582E5D80708F497C02C2F269526958D
:1013200080E2289F900111248C2F8370C1E0D0E0CF
:1013300002C0CC0FDD1F8A95E2F7C22BD32BDD68EC
:10134000D4CFC03A82E5D80760F4C03882E5D80728
:1013500008F459C0CF71D0E0DC2FCC27C46FD06A1D
:10136000C4CFC03C82E5D80708F462C0C03E82E525
:10137000D80708F09CCFDC2FCC27CC27DF71C06FBB
:10138000D06AB3CFC55AD0E0C75CDE4FC881D0E089
:10139000D064ABCFD065A9CF8D2F0E942208182F23
:1013A000CE0199270E947108C12FD0E0DC2FCC27F5
:1013B000CC27DF71C82BD92B98CFCE0199270E945B
:1013C0007108CC27DF70C82BD92BD06A8ECFCF7194
:1013D000D0E0DC2FCC27C16FD06A87CF2C2F269589
:1013E0002695277080E2289F900111248C2F83700E
:1013F000C1E0D0E002C0CC0FDD1F8A95E2F7C22B1E
:10140000D32BDC6872CF2C2F26952695277080E28F
:10141000289F900111248C2F8370C1E0D0E002C07E
:10142000CC0FDD1F8A95E2F7C22BD32BDA685DCF94
:101430008C2F8F710E942208C82FD0E0DC2FCC2780
:10144000CC27DF71D06251CF8C2F8F710E94220880
:1014500055E0D695C7955A95E1F7CF70D0E0DC2FCF
:10146000CC27282F30E084FF05C044E0220F331F33
:101470004A95E1F7C22BD32BD06937CF8D2F8F71CF
:101480000E942208182FCE0199270E947108C12FAF
:10149000D0E0DC2FCC27CC27DF71C82BD92BD2CFC3
:1014A00080959091EE0198239093EE01089580919C
:1014B000AA0390917103981301C008958F5F8770FC
:1014C000FACFB0E0A0E0E7E6FAE00C948E297C01C8
:1014D00000914302109144028091EF019091F0013C
:1014E000082B192BCFE0D0E0CC24C394D12CBC2EF8
:1014F000C6010C2E02C0880F991F0A94E2F78023C0
:101500009123892B49F4219790F7B12C8B2DCDB7DE
:10151000DEB7E9E00C94AA29B7018C2F0E941309C9
:101520000E943209019779F3F1CFCF93DF93EC0159
:101530000E94610ABE010E9413090E943209DF91D4
:10154000CF910895983078F5863068F5E82FF0E06F
:1015500086E0989FE00DF11D11249E2F977083E087
:10156000F695E7958A95E1F7EE0FFF1FEE0FFF1F47
:10157000E455FE4F50E040E080E0219130E0092E3C
:1015800002C0369527950A94E2F721703327042E7E
:1015900001C0220F0A94EAF7822B4F5F5F4F44305D
:1015A000510559F7089580E00895983098F58630F0
:1015B00088F5E82FF0E086E0989FE00DF11D1124FA
:1015C0008E2F877041E001C0440F8A95EAF783E0CF
:1015D000F695E7958A95E1F7EE0FFF1FEE0FFF1FD7
:1015E000E455FE4F30E020E070E05191DF011197AB
:1015F000CB01022E02C0969587950A94E2F781707E
:1016000081958527842385278C932F5F3F4F243036
:10161000310559F708959093440280934302089549
:1016200021E030E002C0220F331F8A95E2F72095B7
:1016300030958091430290914402822393230E942B
:101640000B0B08959091CB01809589238093CB015A
:10165000282F277069F4891759F09091410392FF60
:1016600007C08695869586950E94100B1092CB0137
:10167000089521E030E002C0220F331F8A95E2F77F
:101680008091430290914402822B932B0E940B0B7A
:1016900008959093F0018093EF010895FC01248157
:1016A0002223C1F0808191810E94950A92959F70BA
:1016B000963091F058F4925F9F70923058F4803FCA
:1016C00019F030F4883E30F481E008959A5FF4CF49
:1016D000843FD1F380E00895883EB0F3813FD1F795
:1016E000F3CFA6E0B0E0E7E7FBE00C949429498350
:1016F0005A8349815A819923A1F0222391F0CA018A
:101700000E94610A182F682F89819A810E94D50A48
:1017100069817A81812F0E9413092696E3E00C9457
:10172000B029CA010E94A20A182FF2CFCF93DF93EB
:10173000682F81E06A3019F06D3031F480E00E944A
:10174000240CDF91CF9108958091B7059091B80551
:1017500026E0FC01A1EBB5E001900D922A95E1F79E
:10176000603E08F458C026E0FC0111922A95E9F782
:10177000C091B705D091B80546E050E0BE0181EBBD
:1017800095E00E94432A9E01215B3340892B41F161
:10179000C90145E0969587954A95E1F741E050E00B
:1017A000BA0102C0660F771F8A95E2F7CB016091FC
:1017B000AF037091B003862B972BB9016B5F7F4FFE
:1017C000E5E076956795EA95E1F702C0440F551F6D
:1017D0006A95E2F7842B952B9093B0038093AF0327
:1017E0002A5F3F4F4091AE03642F70E0C9010E9411
:1017F0007129481B463010F4240F311D211572E069
:10180000370710F030E020E02F543C4F3093B805FC
:101810002093B70596CFF6E06F9FB0011124665F65
:101820007A4F46E050E00E943A2AA2CFCF93DF934E
:10183000EC01FE018491811103C0DF91CF910895E5
:101840000E94960B2196F5CFCF93382FE091B705E4
:10185000F091B805E15BF3402091AE03622F70E098
:10186000CF010E947129281B822F332361F066E08B
:101870000E94BC29C82FC15010F4CF91089580E276
:101880000E94960BF8CF9F01280F311D2115324081
:1018900018F080E0F0E0E0E08E0F9F2F911D8F5454
:1018A0009C4F9093B8058093B705E7CF0E94160C24
:1018B00081E00E94240C08958091EE019091ED0149
:1018C000892B80938A019091EC019923A1F0892BB7
:1018D00080938A01809138018823E1F1809140034F
:1018E00087FF38C08EE1ECE8F1E090E08150A0F590
:1018F00091111092EC0140E250E06CEC71E08AE84A
:1019000091E00E94432A892B21F180E2EAE8F1E08C
:10191000ACECB1E001900D928A95E1F7E0913703CC
:10192000F09138033097A9F080913801882359F05D
:101930008091400387FF07C080918A0180938B01CB
:1019400086E080938A010280F381E02D8AE891E0AD
:101950000995089586E0C7CF2191222339F29F5F30
:10196000C5CF882321F00E94500A0E945C0C089584
:10197000882339F09091EE01982B9093EE010E940C
:101980005C0C08950F931F93CF93DF938B01EA01B3
:1019900090916703943061F58093E9008FEF909107
:1019A000E800815095FD06C095ED9A95F1F700008D
:1019B0008111F5CF8091E80085FF1AC00E9499053A
:1019C000811111C08091E80085FD06C08091E8007A
:1019D0008E778093E800F2CFF80181918F01809398
:1019E000F100219779F78091E8008E778093E800E5
:1019F000DF91CF911F910F91089543E050E0BC011A
:101A000082E00E94C20C089546E050E0BC0182E0F2
:101A10000E94C20C0895CF93DF93EC0180913801AE
:101A2000811111C048E050E0BE0181E00E94C20C6B
:101A300080E2FE01A5E4B3E001900D928A95E1F702
:101A4000DF91CF9108958091400387FF05C040E268
:101A500082E050E0BE01EACF48E081E0FACF609139
:101A600034018091270380FF20C08091330143E03F
:101A7000849FC00111248B579D4F539A2BB1277F10
:101A80003BB138605FB7F894FC01649FE00DF11D35
:101A90001124BF0168177907D1F45FBF8FE594E087
:101AA0000197F1F700C000000895809135019091F1
:101AB000360123E0829FF0011124EB57FD4F891777
:101AC000A0F61182108212828F5F3396F8CFFC014C
:101AD0004191CF01E8E03BB9000000C047FF2BB9BE
:101AE000440F000000C000C000C02BB900C0EA9540
:101AF00091F7D0CFB0E0A0E0E0E8FDE00C948D29B4
:101B00007C015B016A018091220201E010E08A30D1
:101B100010F40AE010E0C1E0D0E0B501C701F60121
:101B20000995811104C021960C171D072CF4CDB71F
:101B3000DEB7EAE00C94A929CC9F9001CD9F300D2F
:101B4000300D112490E080E045E34A95F1F7000064
:101B5000019682179307C1F7E0CF8091FD018111B3
:101B600010C08091D80080618093D8008AE18A9566
:101B7000F1F700C08091D90080FF0AC081E0809316
:101B8000FD0181E09091FD01913009F080E0089520
:101B900082E08093FD010E947A0510926703F1CFE5
:101BA0000E94AD0D882359F0E0913703F09138037E
:101BB000309729F00190F081E02D0995089580E09B
:101BC00008950F931F930E94AD0D882329F00E9462
:101BD000E8061F910F9108950E94E80600912302E4
:101BE000109124022091250230912602600F711F6E
:101BF000821F931FEECFB0E0A0E0E1E0FEE00C9486
:101C00008F296C017B0164E670E088E70E94CF2693
:101C10008C01E601EC0CFD1C17FD0BC0FE0184914C
:101C200064E670E00E943B278C012196CE15DF050B
:101C300099F70E94B12781E00115110509F080E0B4
:101C4000CDB7DEB7E8E00C94AB29809133039091D7
:101C50003403911103C091E089270895882369F026
:101C600062E070E08DE993E00E94FB0D811103C0FA
:101C70008091330308951092330380913303EBCFA7
:101C8000CF93C0913303809134038823D1F00E9415
:101C9000E806605A75418F4F9F4F60932F037093F2
:101CA00030038093310390933203C11108C062E086
:101CB00070E08BE993E00E94FB0D811105C0C0919B
:101CC00033038C2FCF91089581E080933303F7CFB6
:101CD000B0E0A0E0EEE6FEE00C948B2949015A0149
:101CE0006B017C010E94A3078401A4016A2D7B2D56
:101CF00088E090E00E948F2A94014A2D5B2DB60166
:101D0000C70100E20E941F2A622F84E290E00E9435
:101D10007D2ACDB7DEB7ECE00C94A729B0E0A0E0B7
:101D2000E4E9FEE00C948B29182FC62FD42F822EC5
:101D30000091270300FF50C080912803811308C041
:101D400080912903861304C080912A03841729F007
:101D500080918402826080938402E02FE695F0E017
:101D6000EA57FE4F808180938202802F8E7F8230DF
:101D7000E9F4ED2FD93708F0E8E7F0E0E556FD4F3C
:101D8000C1112FC02491F22FE22F00FF0FC08091CC
:101D900035019091360133E0839FD0011124AB5778
:101DA000BD4F891708F492C00E942F0D109328038D
:101DB000C0932903D0932A03882071F02091270330
:101DC00060912B0370912C03312FAE0180912D0374
:101DD00090912E030E94680ECDB7DEB7ECE00C9414
:101DE000A729EC2EF12CE4919E2ECE2ED12C26E0AC
:101DF000129FC00111242FEF30E0B9010E94712918
:101E0000812F90E0880F991FF5E5F69FA001F79FBD
:101E1000500D1124841B950BB82EBB0CB80EA901D4
:101E20004E195F094C9DC0014D9D900D5C9D900D1C
:101E30001124F92FCB9DA0011124452F5527D9013D
:101E4000A41BB50BAC9DA001AD9D500DBC9D500DCC
:101E50001124D901AB19B1095D01AE9CD001AF9C31
:101E6000B00DBE9CB00D1124AB2FBB272A1B3B0B22
:101E70002C9DD0012D9DB00D3C9DB00D11242B2F1C
:101E800062307105A1F050F46115710509F47DCF40
:101E90006130710581F0292FF52F77CF64307105FE
:101EA00069F080F06630710509F46FCFF4CF2E2F02
:101EB000E92FFB2F6ACF2E2FE52F67CF292FFE2F7B
:101EC000EB2F63CFE92FF92D252F5FCF1196EC93E0
:101ED00011972C931296FC9312978F5F139661CFF4
:101EE000E7E2F3E0438121E1421B08F440E021E016
:101EF000628181810E948E0E0895E7E2F3E04381C2
:101F000021E1420F08F44FEF21E0628181810E94BC
:101F10008E0E0895E7E2F3E0628121E1621B08F48E
:101F200060E021E0438181810E948E0E0895E7E206
:101F3000F3E0628121E1620F08F46FEF21E0438159
:101F400081810E948E0E0895E7E2F3E0818121E015
:101F50004381628188500E948E0E0895E7E2F3E08B
:101F6000818121E043816281885F0E948E0E089505
:101F700080912B03882319F0815080932B032091AB
:101F80002703309128034091290350912A0360913F
:101F90002B0370912C0380912D0390912E030E94AE
:101FA000680E089580912B03833018F48F5F80931F
:101FB0002B0320912703309128034091290350914E
:101FC0002A0360912B0370912C0380912D03909133
:101FD0002E030E94680E08952091270320FF24C03D
:101FE0002170226020932703809184028160809376
:101FF0008402662381F03091280340912903509197
:102000002A0360912B0370912C0380912D039091F2
:102010002E030E94680E20E040912A03609129035C
:10202000809128030E948E0E089580912703869543
:10203000815009F481E061E00E94EC0F089561E0B5
:1020400081E00E94EC0F0895E7E2F3E083E08083F3
:1020500011828FEF828388E783831482A2E8B2E043
:1020600012968C911297836012968C93758123E05F
:1020700030E04FEF58E760E0868197810E94680E5C
:1020800008959091410392FB222720F9281779F0B7
:1020900080FB92F99093410360914003709141035A
:1020A00084E090E00E949B2A82E00E94220B089527
:1020B000A4E0B0E0EEE5F0E10C9494294091060232
:1020C0005091070260910802709109022FB7F894AD
:1020D00080913C0390913D03A0913E03B0913F035A
:1020E0002FBF841B950BA60BB70B11E0843691050F
:1020F000A105B10570F10E94E10D6E5F7F4F8F4F1A
:102100009F4F69837A838B839C8380911101909187
:102110001201865F9D4F4091100150E045305105FE
:1021200010F044E050E0BE016F5F7F4F0E94502AE4
:1021300082E090E00E94FB28182F882351F00E9433
:10214000E80660930602709307028093080290935A
:102150000902812F2496E3E00C94B029ABE0B0E0B3
:10216000E4EBF0E10C94952988E0E7E2F3E0DE018E
:10217000119601900D928A95E1F7809182029091DB
:102180008302A091840289879A87AB872B8540912F
:102190001E0250911F0260912002709121023FB7F0
:1021A000F89480913C0390913D03A0913E03B0913F
:1021B0003F033FBF841B950BA60BB70B84369105DD
:1021C000A105B10510F4222319F180911901909114
:1021D0001A01865F9D4F4091180150E04C30510527
:1021E00010F04BE050E0BE016F5F7F4F0E94502A1D
:1021F00083E090E00E94FB28882369F00E94E806B3
:1022000060931E0270931F0280932002909321021C
:102210001092840281E02B96E2E00C94B129EF92B7
:10222000FF921F93CF93DF9300D000D00F92CDB7D2
:10223000DEB77B0190E080E00E94FB28182F882306
:1022400009F46DC04091030150E04115510511F0B2
:1022500041E050E06091040170910501665F7D4F9F
:10226000CE0105960E94502A40910202509103022D
:1022700060910402709105022FB7F89480913C039D
:1022800090913D03A0913E03B0913F032FBF841B6B
:10229000950BA60BB70B84369105A105B10538F453
:1022A0008BE092E00E9463059D818917C1F181E076
:1022B00090E00E94FB28882309F458C040910B014C
:1022C00050E04530510510F044E050E060910C01C1
:1022D00070910D01665F7D4FCE0101960E94502ADC
:1022E0008BE092E00E9463059D8189133FC00E94AC
:1022F000E8066093020270930302809304029093B5
:10230000050289819A81AB81BC818093FE01909303
:10231000FF01A0930002B093010211E00EC0809172
:102320000B0290910C02A0910D02B0910E028983D4
:102330009A83AB83BC831111E4CF8091FE0190910D
:10234000FF01A0910002B0910102F7018083918307
:10235000A283B383812F0F900F900F900F900F9057
:10236000DF91CF911F91FF90EF90089510E0E5CF9E
:10237000A8E0B0E0EEEBF1E10C94952966EE7EEF7B
:1023800090E080E00E949B2A60E082E090E00E9462
:102390007D2A60E083E090E00E947D2A1092F001A7
:1023A0001092EF0160E074E184E090E00E949B2ACB
:1023B00060E086E090E00E947D2A6FEF87E090E089
:1023C0000E947D2A40E050E0BA0188E090E00E943F
:1023D0008F2A60E084E290E00E947D2A60E087E13D
:1023E00090E00E947D2A60E08CE090E00E947D2ACF
:1023F00060E08DE090E00E947D2A19821A821B82A3
:102400001C821D821E821F82188648E050E068E10F
:1024100070E0CE0101960E946D2A40E050E0BA01C2
:1024200080E290E00E948F2A40E050E0BA018FE005
:1024300090E00E948F2A40E050E0BA0183E190E0F2
:102440000E948F2A2896E2E00C94B1291F920F92E5
:102450000FB60F9211242F933F934F935F936F9377
:102460007F938F939F93AF93BF93EF93FF9380914D
:10247000E10082FF09C08091E20082FF05C08091E7
:10248000E1008B7F8093E1008091DA0080FF24C01F
:102490008091D80080FF20C08091DA008E7F8093E9
:1024A000DA008091D90080FF9DC080E189BD82E182
:1024B00089BD09B400FEFDCF81E080936703809160
:1024C0004203811109C00E947A050E941B06809177
:1024D000E20084608093E2008091E10080FF17C0F9
:1024E0008091E20080FF13C08091E2008E7F809394
:1024F000E2008091E20080618093E2008091D80048
:1025000080628093D80019BC85E080936703809136
:10251000E10084FF2BC08091E20084FF27C080E1AE
:1025200089BD82E189BD89B5982F917080FFFBCF6D
:102530008091D8008F7D8093D8008091E1008F7EBC
:102540008093E1008091E2008F7E8093E200809191
:10255000E20081608093E20080916803882309F49F
:1025600047C084E080936703809167038091E10016
:1025700083FF27C08091E20083FF23C08091E100A8
:10258000877F8093E10082E0809367031092680365
:102590008091E1008E7F8093E1008091E2008E7F48
:1025A0008093E2008091E20080618093E20042E04B
:1025B00060E080E00E94E9058091F00088608093EF
:1025C000F000FF91EF91BF91AF919F918F917F911B
:1025D0006F915F914F913F912F910F900FBE0F9090
:1025E0001F90189519BC109267031092420374CF84
:1025F0008091E30087FD93E090936703B5CF7894D3
:102600001F921FB61F9211248F939F93AF93BF9376
:1026100080913C0390913D03A0913E03B0913F0314
:102620000196A11DB11D80933C0390933D03A0939F
:102630003E03B0933F03BF91AF919F918F911F9045
:102640001FBE1F9018959C014FB7F89480913C03D2
:1026500090913D03A0913E03B0913F034FBF821B79
:10266000930B08952FB7F89480913C0390913D030C
:10267000A0913E03B0913F032FBF08950E943213F3
:102680009C0190917E0280917F02982B21F03093E3
:102690007B0220937A029091800280918102982B94
:1026A00021F03093790220937802E0913703F09182
:1026B0003803309749F082E080937C020480F581F2
:1026C000E02D8CE792E0099508951092EE0180913B
:1026D0003801ECE8F1E0882329F18091400387FF7D
:1026E00021C08EE1DF011D928A95E9F790E080E03C
:1026F0000E94780790E080E00E9453071092ED015D
:102700000E945C0C86E0ECE7F2E0DF011D928A9506
:10271000E9F71092750210927602109277020E94E9
:102720003E13089586E0DECFAAE2B0E0EAE9F3E1E5
:102730000C94942989E693E02091F100FC01219307
:10274000CF01F3E081379F07B9F780916A038330A7
:1027500009F470C0B8F4813009F447C0823009F43C
:10276000B1C08091E80083FF7EC28091690390919F
:102770006A039A3008F077C2E92FF0E0ED54F54D86
:102780000C94FE298A3009F48CC08B3009F46FC098
:10279000893039F780916903813219F780916D038F
:1027A00090916E030297E8F68091E800877F80930E
:1027B000E8008091E80082FF38C09091F30080919A
:1027C000F200029731F48091F100813011F08630EF
:1027D00021F48091F100809344038091E8008B778D
:1027E0008093E8000E94CA05BCCF80916903813ABA
:1027F00009F0B7CF8091E800877F8093E80080914F
:102800006D0390916E03892B61F460E285E493E09F
:1028100070E00E9476068091E8008B778093E80054
:10282000A0CF60E090E080E0F3CF8091670381115A
:10283000C0CF97CF80916903813A09F092CF809100
:102840006D0390916E03892B09F08BCF8091E80086
:10285000877F8093E8008091E80080FFFCCF809123
:1028600038018093F1008091E8008E77B9CF809194
:102870006903813209F075CF80916D0390916E03E9
:10288000892B09F06ECF8091E800877F8093E80064
:102890000E94CA0580916B03809338010E946513E2
:1028A00060CF80916903813209F05BCF8091E800AD
:1028B000877F8093E8000E94CA0580916C03809313
:1028C00043034FCF80916903813A09F04ACF809149
:1028D000E800877F8093E8008091E80080FFFCCFCC
:1028E00080914303BECF803899F0823809F0BBC194
:1028F00080916D038F70873008F0B5C18093E90037
:102900008091EB0085FB882780F91092E90006C0D2
:102910008091650390916603911182609091E80027
:10292000977F9093E8008093F1001092F1008091DE
:10293000E8008E7794C1882309F482C1823009F0BF
:1029400092C180916B03811185C180916D038F705D
:102950002FEF280F263008F086C18093E9002091E0
:10296000EB0020FF77C1933031F48091EB0080625F
:102970008093EB006FC19091EB0090619093EB001E
:1029800021E030E001C0220F8A95EAF72093EA00A7
:102990001092EA008091EB008860EACF811163C158
:1029A00010916B031F778091E3008078812B8093D7
:1029B000E3008091E800877F8093E8000E94CA05C9
:1029C0008091E80080FFFCCF8091E30080688093D5
:1029D000E30082E0111183E08093670344C18058D3
:1029E000823008F040C180916B0390916C038C3D64
:1029F00023E09207A1F583E08A838AE289834FB7B7
:102A0000F894DE01139620E03EE051E2E32FF0E07F
:102A100050935700E49120FF03C0E295EF703F5FB1
:102A2000EF708E2F90E0EA30C0F0C7968D939D93A3
:102A30002F5F243159F74FBF8091E800877F809343
:102A4000E8006AE270E0CE0101960E94760680916D
:102A5000E8008B778093E80006C1C096E7CF4091ED
:102A60006D0350916E03292F33272330310509F46C
:102A700044C078F52130310509F46FC08BE390E054
:102A8000E9E9F4E02230310509F0EDC02091E800D9
:102A9000277F2093E80020916F0330917003821705
:102AA000930708F49C0140E02115310509F064C04A
:102AB000411162C08091E80082FDC9CF8091670317
:102AC000882329F2853019F28091E80083FFF2CF44
:102AD000BECF21323105A9F12232310509F0C3C040
:102AE0004115510509F443C04130510509F0BBC0FF
:102AF00086EB90E0EFE9F3E0C9CF992781309105AB
:102B0000C1F0009759F0029709F0ADC0E6EEF4E08D
:102B1000E4918E2F90E0E6EEF4E007C0E6E0F5E009
:102B2000E4918E2F90E0E6E0F5E0009709F49BC079
:102B3000ADCFE4EFF4E0E4918E2F90E0E4EFF4E029
:102B4000F4CF4115510571F04130510509F08BC0AA
:102B500089E090E0E4ECF4E099CF82E190E0E4EDEC
:102B6000F4E094CF89E090E0EBEAF4E08FCF84E4E6
:102B700090E0E5E5F4E08ACF80916703882309F4CB
:102B800066CF853009F463CF8091E80083FD5FCF85
:102B90008091E80082FD8ECF8091E80080FF84CF95
:102BA0009091F3008091F2002115310519F08830E1
:102BB000910550F041E0089709F040E08091E8006D
:102BC0008E778093E80070CF44914093F100319666
:102BD000215031090196E8CF803809F044C0809136
:102BE000E800877F8093E800809168038093F1007C
:102BF0009ECE811138C010916B031230A0F58091E8
:102C0000E800877F8093E800109368030E94CA055C
:102C1000112311F084E005C08091E30087FDFACF15
:102C200081E08093670342E061EC81E00E94E90566
:102C300042E261EC82E00E94E9058091670313C0E3
:102C400080916B03813079F481E0933009F080E06A
:102C5000809366031092E9008091E800877F80935B
:102C6000E8000E94CA058091E80083FF0AC08091B5
:102C7000E800877F8093E8008091EB00806280937A
:102C8000EB00AA96E3E00C94B0291F920F920FB6C6
:102C90000F9211242F933F934F935F936F937F93E2
:102CA0008F939F93AF93BF93CF93DF93EF93FF9354
:102CB000D091E900DF708091EC00C82FC17080FDD9
:102CC000C0E81092E9008091F000877F8093F000C7
:102CD00078940E9494131092E9008091F00088602B
:102CE0008093F000CD2BCF70C093E900FF91EF915E
:102CF000DF91CF91BF91AF919F918F917F916F9114
:102D00005F914F913F912F910F900FBE0F901F90A9
:102D100018950E9465132FEF84E39CE021508040BA
:102D20009040E1F700C0000088E19AE00FB6F89407
:102D3000A895809360000FBE90936000FFCF66233C
:102D400009F45DC08D3C41F40E94DB0781958093BE
:102D50007F020E943E1308958E3C19F40E94DB0707
:102D6000F6CF8F3C31F40E94DB07819580937E0281
:102D7000F0CF803D19F40E94DB07F8CF893D29F49C
:102D80000E94B90780938002E4CF8A3D21F40E941B
:102D9000B9078195F7CF8B3D31F40E94B907819532
:102DA00080938102D6CF8C3D19F40E94B907F8CFE9
:102DB0009FE2980F983070F4815D990B21E030E02C
:102DC00001C0220F8A95EAF780917D02822B8093C1
:102DD0007D02BFCF8D3D31F4809177028160809379
:102DE0007702B7CF8E3D21F4809177028260F7CFD2
:102DF0008F3D09F0AECF809177028460F0CF409193
:102E00007E028D3C59F480917F0287FF0DC01092A5
:102E10007F0241110BC01092750208C08E3C81F4F4
:102E200080917F0218169CF3442381F080918002E8
:102E300090918102892B09F08CCF1092760289CF74
:102E40008F3C49F447FFF0CF10927E0280917F02C1
:102E50008111ECCFE0CF803D19F41416ACF3E4CF30
:102E600090918002893D29F41916F4F6109280029F
:102E7000DBCF8A3D19F497FFD7CFF8CF909181022D
:102E80008B3D29F497FFD0CF10928102CDCF8C3D9E
:102E900019F41916CCF3C8CF9FE2980F983090F42C
:102EA000815D990B21E030E0B90102C0660F771F08
:102EB0008A95E2F7CB01809590917D0289238093DA
:102EC0007D02B2CF8D3D31F4809177028E7F809369
:102ED0007702AACF8E3D21F4809177028D7FF7CFC4
:102EE0008F3D09F0A1CF809177028B7FF0CF8823AF
:102EF00099F19CEF980F913A40F4682F8AE891E09D
:102F00000E94F4060E945C0C089590E2980F98309D
:102F100050F4877091E001C0990F8A95EAF7892FE4
:102F20000E94500AEFCF9BE5980F933028F490E071
:102F300080E00E947807089598E5980F9B3128F467
:102F400090E080E00E945307089593E3980F933137
:102F500018F460E00E949F160895CF93C82F88232D
:102F6000D1F18CEF8C0F813AC0F580913801882324
:102F700011F18091400387FF1EC0EC2FE695E69586
:102F8000E695F0E0E657FE4F828190E04C2F4770C7
:102F900021E030E002C0220F331F4A95E2F782237E
:102FA0009323892B89F06C2F8AE891E00E94F40624
:102FB0000E945C0C09C0ECE8F1E08191C81799F31C
:102FC00081E0E239F807C9F76C2F8AE891E00E94A6
:102FD0001E070E945C0CCF91089580E28C0F883010
:102FE00068F4C77021E030E001C0220FCA95EAF70B
:102FF0008091EE01822B8093EE01EBCFEBE5EC0F9D
:10300000E33040F4F0E0E75CFE4F808190E00E9406
:103010007807E1CFE8E5EC0FEB3150F4F0E0EE0F8C
:10302000FF1FE45CFE4F808191810E945307D3CF44
:1030300083E38C0F833178F661E08C2F0E949F161A
:10304000CACF0F931F93CF93DF93C62FD42F022F96
:10305000FC0185818823A9F06093AD030E9432139F
:103060009093AC038093AB03C77081E001C0880FDD
:10307000CA95EAF70E94B80CDF91CF911F910F918A
:1030800008958091AD03681335C08091AB03909192
:10309000AC030E942313883C910560F510E21D0FDC
:1030A000CD17B9F080E28C0F883040F4C77081E012
:1030B00001C0880FCA95EAF70E94B10C183048F495
:1030C00081E09D2F977001C0880F9A95EAF70E94C2
:1030D000B80C802F0E94AD17802F0E9477171830F0
:1030E00058F6D77081E001C0880FDA95EAF70E94A0
:1030F000B10CC2CFC77081E001C0880FCA95EAF752
:10310000F6CFB0E0A0E0E7E8F8E10C948D298C015F
:10311000FC018481882309F467C021E0408151814A
:103120006281738195810E94710BEC01F801958198
:10313000992309F45EC4818180934F02808180933A
:103140004E0280E280932B01D0934D02C0934C023B
:103150009E0130522115304238F4F8018681807F7B
:1031600009F45EC0FE010AC09E01305421153041B1
:10317000C8F4F8018681807FFE0109F0FF27ED3356
:10318000F10528F4E455FF4FE491E0932B01FE0193
:10319000E851FC47E730F10508F042C0E354F54D33
:1031A0000C94FE299E013A9521153F41D8F29E01CB
:1031B000205A32452032310550F3FE01E0CF26E29D
:1031C00041EE61EEC8010E9421188091CB01877009
:1031D00059F0F8018581882339F08091410382FFFD
:1031E00003C082E00E94220BCDB7DEB7EAE00C9468
:1031F000A92927E245EE65EEE5CF26E241EE60EE35
:10320000E1CF27E245EE64EEDDCF26E241EE62EE4D
:10321000D9CF27E245EE66EED5CF28E241E0EBCFED
:103220001092AD039E0130572332310508F0FBC3E5
:1032300084E090E00E94672A9093410380934003CA
:10324000FE01E150F047E232F10520F4EC53F54D78
:103250000C94FE298091400381608093400395C0C7
:10326000809141038860809341038FC08091400327
:103270008260F3CF809140038460EFCF8091400360
:103280008860EBCF809141038160EDCF8091410355
:103290008260E9CF809140038061DFCF809140035D
:1032A0008062DBCF809140038064D7CF0E9465139A
:1032B000809140038068D1CF809140038C60CDCF56
:1032C000809141038360CFCF809140038E7FC5CF33
:1032D00080914103877FC7CF809140038D7FBDCF11
:1032E000809140038B7FB9CF80914003877FB5CF1A
:1032F000809141038E7FB7CF809141038D7FB3CF03
:10330000809140038F7EA9CF809140038F7DA5CF10
:10331000809140038F7BA1CF0E9465138091400371
:103320008F779BCF80914003837F97CF809141031C
:103330008C7F99CF8091400382FB992790F921E0FF
:10334000922790FB82F990FB83F987CF809141030C
:10335000982F909591708E7F892B90FB81F983CF68
:1033600090914003892F8F7B96FF806476CF0E94D7
:10337000651390914003892F97FB87F980586DCF93
:1033800061E08EE090E00E947D2A609140037091A0
:10339000410384E090E00E949B2A0E94651315CFB0
:1033A00060E0EFCF90914003892F8F7E94FF806182
:1033B00054CF90914003892F8E7F90FF81604DCF35
:1033C00090914103892F877F93FF88604CCF809134
:1033D000AA0169E2811165E38AE891E00E94F4069E
:1033E00036C3992309F411C3C3303CE7D30709F46A
:1033F000D4C008F0B7C0C1159CE7D90709F4C0C014
:10340000C130DC4709F4CFC0F8018581C081D1818A
:10341000882309F4D6C0CE010E94610AF82E682FD5
:10342000CE010E94D50ABE018F2D0E9413090E9471
:103430003209D82FC92FA82EF801C580B680B294C2
:103440003FE0B3228091CB018770F1F0EC2CCC20CF
:10345000E1F0892F807F803451F080E28D0F883039
:1034600098F0B11004C0892F807E803269F080917D
:10347000410382FF09C082E00E94220B8091CB01B0
:103480008770EE24E3948111E12CDC2ED2942FE09E
:10349000D222FBE0FD1508F4F9C0ED2DF0E0EA5171
:1034A000F54D0C94FE298091270380FF1CC0282F26
:1034B0002E7F2093270330912803409129035091B8
:1034C0002A0360912B0370912C0380912D0390911E
:1034D0002E030E94680E8091840281608093840292
:1034E0000E942F0D72CE81608093270361E0869544
:1034F0000E94EC0F6ACE45E150E16FE170E10E945D
:103500009D0763CE4FE150E165E170E1F8CF44EAF9
:103510005FE06EEA7FE0F3CF4EEA5FE064EA7FE0CF
:10352000EECF4AE85FE067E97FE0E9CF47E95FE097
:103530006AE87FE0E4CF40E75FE06DE77FE0DFCF60
:103540004DE75FE060E77FE0DACF48EB5FE062EDF8
:103550007FE0D5CF42ED5FE068EB7FE0D0CF61E068
:1035600081E0C6CFCB35FCE7DF0749F1CC352CE74E
:10357000D207D9F0CA35DC4709F046CF81E01CC03C
:103580000E9465138FEF94E3ECE081509040E0409F
:10359000E1F700C000000E94D7066FEF7FEF90E0D8
:1035A00080E00E949B2A0E9489168091410382FB41
:1035B000882780F991E089270E94411025CF80E07B
:1035C000FBCFCE010E94A20AF82E2DCF2C2F2F70F8
:1035D000F22EC07F19F0F29490EFF922CC20B9F0CE
:1035E000FF2069F080E28D0F883010F0A11009C033
:1035F0008091EE01F82AF092EE010E945C0C8D2F72
:1036000043C08091ED01F82AF092ED01F6CF8D2FA5
:103610000E947717FF20D1F1D05ED83010F0A110B2
:1036200004C08F2D0E94500A06C0F0948091ED01D5
:10363000F822F092ED010E945C0C28C03C2F3F70F4
:10364000F32EC07FC03219F0F29480EFF822AA2046
:1036500059F081E0A81609F479C0CC2009F485C09E
:10366000BB2009F447C0CBCF8091410382FD3EC00F
:10367000CC20B1F1FF2039F08091EE01F82AF092D0
:10368000EE010E945C0C80E00E94AD172D2D2850A9
:10369000330B2430310510F40E94D00DEE20A9F038
:1036A0008091CB0180FD11C0F80115828695869529
:1036B00086950E94390BC8010E9481188091CB0128
:1036C0008695869586950E94100B20E0F801408132
:1036D000518162817381848195810E94710B84CDB7
:1036E00080E00E947717FF2089F29BCFCC20A1F0C9
:1036F000B11004C08F2D0E94B80CC8CF91E0B91250
:10370000C5CF8091EC019F2D9823F91609F4BECF07
:10371000F82AF092EC01BACFB110B8CF8F2D0E94E9
:10372000B10C9091EC018F2D892329F08F2D80957C
:1037300089238093EC018091AB019F2D982309F49C
:10374000A5CFF094F822F092AB01A0CFCC2029F0C5
:10375000E5E0EB1508F49ACFCDCFF4E0FB1508F4C3
:1037600095CF8F2D0E94B10C91CFBB20D1F329E3CF
:10377000A21209C03FEF87EE93E0315080409040A5
:10378000E1F700C000008D2F0E9477177FCF8C2FAC
:1037900086958695837069F0813009F077CF8D2FFB
:1037A0009C2F9370C11002C080E090E00E945307EC
:1037B0006DCF8D2F9C2F9370C11002C080E090E0E0
:1037C0000E94780763CF6C2D8D2F0E949F165ECFCD
:1037D0008C2F837009F03FC0C11058CF4D2F4295F8
:1037E00046954770440F440F2D2F2F7030E0042E64
:1037F00002C0220F331F0A94E2F790E080E0D4FF6A
:1038000009C08FE090E002C0880F991F4A95E2F747
:1038100080959095C695C695C370C23099F078F49E
:103820004091EF015091F001C13039F0822B932B80
:10383000842395230E94490B29CF242B352B822BDF
:10384000932BF8CF822B932B2091EF013091F00135
:1038500082279327EFCF8695CC2011F08C2F817093
:10386000882309F413CF4D2F429546954770440F96
:10387000440F2D2F2F7030E0042E02C0220F331F73
:103880000A94E2F790E080E0D4FF09C08FE090E076
:1038900002C0880F991F4A95E2F780959095C695CA
:1038A000C695C370C23099F078F4409143025091AC
:1038B0004402C13039F0822B932B842395230E943C
:1038C0000B0BE4CE242B352B822B932BF8CF822BA2
:1038D000932B209143023091440282279327EFCF0C
:1038E000CF70CC2029F08C2F0E94390B8D2F03CF65
:1038F0008D2F0E94B10C8C2F0E94100BC7CE8D2FE4
:10390000E2EFAE1699F1EA1570F0F0EFAF16D1F0D4
:1039100021EFA21691F0CC2009F45BC0B1106FCE5C
:103920008C2F8F7127C033EFA31639F194EFA912B2
:10393000F2CF8091410382FD2EC08C2F8F71CC205D
:10394000D9F218C0CC2069F0E4E0EB1508F49ECE63
:10395000CF7181E090E002C0880F991FCA95E2F70D
:10396000B8CFF5E0FB1508F491CEF2CF8C2F8F7114
:10397000C110C2CF0E94390B89CE90E080E0CC20EC
:1039800009F49DCFCF7181E090E002C0880F991FAC
:10399000CA95E2F794CFCC2089F0CF718C2F0E948A
:1039A000390B8091410382FF07C028E0C29FC0010C
:1039B000112483608093CB018C2FDCCF81E00E94A7
:1039C000220B31E03B1508F061CE82E00E94220B11
:1039D0005DCEBB2059F0893309F0D5CE8FEF97EE3D
:1039E000E3E081509040E040E1F7CBCE8C2F8F7127
:1039F00083CFFE01E851FC47E730F10508F4CECB58
:103A0000C6312CE7D20709F4E2CC8091EE01827234
:103A1000FE01E052F847E531F10508F0F5CCEE5033
:103A2000F54D0C94FE29C631FCE7DF0709F0D9CC2F
:103A30008091EE018A7A91E009F490E09093AA01D6
:103A400069E2811165E38AE891E00E941E070E9405
:103A50005C0CBBCBCF93DF938091CA01807F09F0D0
:103A60004DC08091C901882309F448C0E091AA03A0
:103A700050917103C091C501D091C4016091C601FC
:103A80007091C70147E05E17C9F18E2F90E0E49F67
:103A9000F0011124EE58FC4F2481222391F1489F1C
:103AA000F001499FF00D1124DF01AE58BC4F119673
:103AB0002C9111972C1325C02C912D1322C01596F3
:103AC0002C91159721111DC012962D913C91261B0A
:103AD000370B283C3105A8F48091CA018F708061B2
:103AE0008093CA01E858FC4F80818F708061808389
:103AF00084EC91E00E9481180E94570ADF91CF91D7
:103B00000895FC013196E770BECFA4E1B0E0EBE888
:103B1000FDE10C948B298C0186E0F801DE011F96F3
:103B200001900D928A95E1F7F8018481E58094EC8B
:103B3000A92E91E0B92E9091C801911128C0882337
:103B400019F1EE20F1F0C8010E944E0BF82E8823E7
:103B5000C1F087E0F801D50101900D928A95E1F757
:103B60008091C801813031F48091C4019091C501E8
:103B70000E94950A0E942A1D8F2D6496ECE00C94F9
:103B8000A729C8010E948118FF24F394F5CFD080A3
:103B9000C18082809380F090C9012091C60130914C
:103BA000C701A401421B530BFF2009F4D9C0483CB4
:103BB000510508F092C08823F9F29091C5018091D7
:103BC000CA01282F207F09F056C0C91214C0909155
:103BD000C401D91210C0E11048C08F708061809379
:103BE000CA0184EC91E00E9481188091CA01F80119
:103BF0008683F12CC1CFE11038C06C2D8D2D0E9431
:103C000044056C2D8D2D0E944405E82E8111F1CFC5
:103C1000DF86C88A8F8598890E94950A292F229568
:103C20002F70243058F49F70223088F0992399F037
:103C3000F8019681907F79F4FE2C9ECF2A5F2F7039
:103C4000223068F0C8010E948118EF2CF5CF99232B
:103C500011F0882389F3805E883070F3F3CF803FC2
:103C600058F3815F833070F7E7CF8091CA0181609C
:103C70008093CA01BECFC91207C09091C401D91266
:103C800003C0EE2009F48DC0C8010E944E0B8823AA
:103C900009F477CFEE2009F474CF8091CA01803205
:103CA00088F02091C4013091C501398728879B860F
:103CB0008A869091C8019C871D868E87CE010896C2
:103CC0000E94811887E0F801A4ECB1E001900D9208
:103CD0008A95E1F70E942A1D57CF9091CA01292F9A
:103CE000207F51F484EC91E00E94811887E0F50177
:103CF00011928A95E9F77DCF882309F43DCF809111
:103D0000C5018C1110C08091C401D8120CC0E11003
:103D10000AC09683C8010E94811887E0F5011192BC
:103D20008A95E9F729CFC8010E944E0B882309F430
:103D300028CFEE2009F425CF8091CA01803210F2FD
:103D40002091C4013091C5013A8329839C828B82E2
:103D50009091C8019D831E828F83CE010196B0CFC2
:103D6000483C5105D0F6882309F40ECFFE2CEE20F6
:103D700009F407CF8091C5018C1120C08091C40146
:103D8000D8121CC08091CA0180FD0FC0982F907F6F
:103D900061F08683903F31F0982F907F905F8F7015
:103DA000892B8683C8010E94811887E0F801A4EC62
:103DB000B1E001900D928A95E1F7DECEC8010E9434
:103DC0004E0B81117FCF8091CA0181608093CA011F
:103DD000C8010E948118D0CEABE1B0E0E2EFFEE175
:103DE0000C9493294E8B5F8B688F798F8A8F9B8F72
:103DF000192F91111092ED011D8A86E0FE01769631
:103E0000DE011F9601900D928A95E1F70A8D00233D
:103E100041F021E04F85588969897A89C8010E945B
:103E2000710B0B8B1C8B87E0FE013F96DE01189611
:103E300001900D928A95E1F7CE0108960E94851DAA
:103E400081112AC087E0FE013896DE0111960190AB
:103E50000D928A95E1F78C858823F1F0209171030A
:103E600030E0C9010196877099274091AA0348174D
:103E70001906E9F097E0929FD001939FB00D1124AD
:103E8000AE58BC4FFE01319601900D929A95E1F724
:103E9000809371030E94570A17E08091AA039091C2
:103EA0007103891312C06B96E4E00C94AF290E9451
:103EB0006513109271031092AA0387E0E4ECF1E01D
:103EC000DF011D928A95E9F7E7CF819FC001112498
:103ED0008E589C4F0E94851D882329F38091AA0348
:103EE00090E00196877099278093AA03D6CFA3E12B
:103EF000B0E0EDE7FFE10C948A298E01045F1F4FCB
:103F000088E0D8011D928A95E9F784E7C82E81E000
:103F1000D82EF12CE12CAA24A394B12C2EE7822ECA
:103F200021E0922EF60181916F018F3F09F442C08A
:103F3000F894E82FE295EF70F0E021A18F70A501D1
:103F400002C0440F551F8A95E2F7CA01922F982BA1
:103F500091A392A18095892382A3789400C0E8E779
:103F6000F1E0712C31E021912F3F09F46BC0A22FB9
:103F7000A295AF70B0E090968C9190E02F7002C047
:103F8000959587952A95E2F780FD5CC0832F782A66
:103F9000330F8E169F0639F7F601319780818F3FD8
:103FA00011F00E940B0850EA5A95F1F7F801EE0D56
:103FB000FF1D70828FEFE81AF80AA4E0EA16F104F8
:103FC00009F0B0CF48E050E0B80187E292E00E94EB
:103FD000432A009741F028E0F801A7E2B2E00190FF
:103FE0000D922A95E1F700913002892B69F181E069
:103FF0008093F5010E9432139093F4018093F301B2
:104000008091F3019091F4010E942313059700F130
:1040100010E00E5C1D4F44E050E067E272E0C80122
:104020000E94432AF12C892B51F084E0E7E2F2E070
:10403000D80101900D928A95E1F7FF24F394109234
:10404000F50107C080E0A3CF8091F5018111D8CFA1
:10405000F12C0E94AD0DE82EE0913002882309F486
:104060007DC019821A821B821C820E2F10E00E5C0A
:104070001D4F809122028A30D8F54FE051E1BE01F8
:104080006F5F7F4FC8010E947A0D882309F455C0E5
:1040900048E550E1BE016F5F7F4FC8010E947A0D75
:1040A000882309F44AC04EEA50E1BE016F5F7F4F9A
:1040B000C8010E947A0D882309F43FC010922202A1
:1040C00080912F0290E044E050E0BE016F5F7F4F8F
:1040D0008E5C9D4F0E94432A21E02093FC01892B96
:1040E000F1F4E12C8E2D8F296396EDE00C94A62936
:1040F0008091F6019091F7010E942313843F914033
:1041000008F0BBCF8091FC01882359F384E0FE01C5
:104110003196DF011D928A95E9F71092FC01E0913A
:104120002F02F0E0EE5CFD4F89819A81AB81BC816A
:1041300080839183A283B383D5CF809122028F3F66
:1041400031F08F5F809322028A3008F4B9CF0E9449
:1041500032139093F7018093F601D4CFF0E0EE5C38
:10416000FD4F84E0ABE0B2E001900D928A95E1F75B
:104170008BE092E00E94630580930A0280900F0218
:1041800090901002A0901102B09012028091F8015C
:104190009091F901A091FA01B091FB01881699065E
:1041A000AA06BB06D1F08092F8019092F901A09284
:1041B000FA01B092FB010E94AD0D81110EC00E9468
:1041C000E806861A970AA80AB90A809223029092F2
:1041D0002402A0922502B09226028BE0E3E1F2E0F5
:1041E000DE01119601900D928A95E1F72981822FC7
:1041F00086950A81DB80CC801B8510921D021123DD
:1042000009F470CF10FF0AC09091270320FF0FC060
:1042100091609093270360E00E94EC0F11FF62CF42
:1042200020E04C2D6D2D802F0E948E0E5BCF9E7F47
:1042300090932703809184028160809384020E947E
:104240002F0DECCFA6E0B0E0E8E2F1E20C94932968
:104250000E9432138C018091F1019091F20180173C
:10426000910781F019821A820E943213682F4981C6
:104270005A81792F80E090E00E94EC1E1093F201A9
:104280000093F1012696E4E00C94AF291F921FB62B
:104290001F9211248F939F93AF93BF9380913B0301
:1042A000811113C080913C0390913D03A0913E0386
:1042B000B0913F034196A11DB11D80933C039093A3
:1042C0003D03A0933E03B0933F03BF91AF919F91F5
:1042D0008F911F901FBE1F901895CDB7DEB76197C5
:1042E0000FB6F894DEBF0FBECDBF85B7806885BF1F
:1042F00085B7806885BF84B7877F84BF0FB6F89481
:10430000A8958091600088618093600010926000A1
:104310000FBE80E890E00FB6F89480936100909310
:1043200061000FBE89E098E0909389018093880135
:104330000E947A050E941B068091E20084608093AF
:10434000E2007894809167038823A1F01091E9003E
:104350001F709091EC00892F817090FD80E8182BE0
:104360001092E9008091E80083FD0E9494131F7071
:104370001093E90082E084BD93E095BD9AEF97BD6C
:1043800080936E0010922302109224021092250254
:10439000109226020E94AD0D809320018091200191
:1043A000882309F475C0109233018BE180933401A6
:1043B0000E94AD0D81110E940F28809120018091F3
:1043C000200194E0811190E09093300284E0891BF9
:1043D00080932F0284E90E940B0886E60E940B0856
:1043E00087E90E940B0886EC0E940B0808E711E0A1
:1043F000D8018D918D018F3F11F00E940B08B1E023
:104400000E371B07A9F788E0E2E3F2E0DF01282F6F
:104410001D922A95E9F7E7E2F2E0DF011D928A9505
:10442000E9F790E080E00E94672A863E9E4F11F0F7
:104430000E94B81182E090E00E94592A80933A02CB
:1044400084E090E00E94672A9093410380934003A8
:104450000E94771FEFEFF6E721E0E150F0402040A7
:10446000E1F700C000000E94771F0E94AD0DE4E05C
:104470008111E0E0F0E0EE5CFD4F808181FF0CC037
:104480006FEF7FEF90E080E00E949B2A0E94D706AA
:104490008BE1809333018ACF83E090E00E94592A18
:1044A00090E00E94490B0E94AD0D811131C182E064
:1044B0008093700280E88093AE030E94C9266BE06F
:1044C00070E08FE192E00E94FB0D8823E9F180917A
:1044D000700265E070E081FD1DC18AE192E00E94FA
:1044E000FB0D882389F16DE070E088E092E00E9486
:1044F000FB0D882349F10E94E806605A75418F4FF1
:104500009F4F60932F0370933003809331039093F8
:104510003203E1EBF3E080E092E0DF019C011D92C9
:1045200021503040E1F7F093B805E093B7058FEFE5
:104530009FEF9093B0038093AF0381E080933403A7
:10454000809333031092710280913102811179C0FE
:1045500090E080E00E94672A863E9E4F21F00E94F4
:10456000B8110E94241088E090E00E94612A4B015B
:104570005C0184E290E00E94592A282F30E040E05C
:1045800050E060E070E080E090E000E20E94042AE9
:10459000282939294A295B292093270330932803A6
:1045A0004093290350932A0360932B0370932C03A9
:1045B00080932D0390932E038091840283608093D7
:1045C00084022E7F89F50E94241088E090E00E94EA
:1045D000612A6B017C0184E290E00E94592A282F15
:1045E00030E040E050E060E070E080E090E00E9469
:1045F000042AB22FA32FF42FE52F5B019701860128
:10460000BC29A12BFE29E32BB0932703A0932803F9
:10461000F0932903E0932A0360932B03B0922C03B9
:1046200080932D0390932E030E94A307809127036C
:1046300080FF04C060E086950E94EC0F81E08093CB
:1046400031020E94AD0D811102C00E94122881E248
:1046500091E090933803809337031AE0C12ED12C58
:10466000E12CF12C8091670300E112E1853009F41F
:104670008EC00E94771F0BE312E0B2E3AB2EB2E0D4
:10468000BB2ED501F80191918D9132E0E334F3070F
:1046900009F487C09817B9F30E94AD0D482E912CEC
:1046A00033243394D5018D905D01F80151908F0131
:1046B000581429F1712C662463945824852D862181
:1046C000B1F04420A1F07F8298860E9432139A872D
:1046D00089873B8691E0882D862109F490E09C87AC
:1046E0004F81588569857A858B850E94EC1E73946D
:1046F000660CF6E07F12E2CFF80131978082939446
:1047000028E09212CFCF0E94E10D31E03D874EC0EC
:1047100080E0CECE85E192E0E2CE809167038430E6
:1047200031F10E94250E10923B0388E190E0A0E455
:104730000FB6F894A895809360000FBEA093600018
:1047400083B7817F846083BF83B7816083BF7894A0
:10475000889583B78E7F83BF0FB6F894A895809114
:104760006000886180936000109260000FBE8091AD
:104770006603882361F00E94771FE2E3F2E08191F3
:104780008111E2C22AE332E02E173F07C1F7809180
:104790006703853009F4C1CF0E9465130E94D00DD4
:1047A00068CF981379CF0E9422211D860E94AD0DFB
:1047B00080913403882309F4B3C0809172029091F0
:1047C00073020E942313C29708F48AC00E94321316
:1047D000909373028093720281EB93E09093B805FB
:1047E0008093B7050E94AD0D882309F4C2C18BE404
:1047F00092E00E94160C2091430230914402832FD4
:104800009927009751F19C0188E0A901F4E05695A1
:104810004795FA95E1F74115510511F08C5F9A0122
:10482000A90156954795569547954115510511F0A3
:104830008E5F9A0136952795232B09F08F5F813083
:1048400009F451C1882359F0823009F44FC18330F3
:1048500009F44FC18AE292E004C080E0D6CF83E43D
:1048600092E00E94560C80914F02805D0E94960B50
:1048700089E592E00E94160C80914E02805D0E94B4
:10488000960B85E592E00E94160C40904C025090E9
:104890004D028091290190912A014816590609F08C
:1048A0002BC180914B02803209F026C1E5E4F2E091
:1048B0008F0181918032E1F3F80101900020E9F746
:1048C0009F012150310959010A151B0508F44BC1FC
:1048D00083E592E00E94160C80912B010E94960BBA
:1048E0008091AF039091B003892B09F047C180916B
:1048F00033038823A9F00E94E80600912F0310914A
:1049000030032091310330913203601B710B820B15
:10491000930B6F3F7F4F8F4F9F4710F40E94250EE0
:104920008D8581110E94400E86E0ECE7F2E0DE0109
:10493000119601900D928A95E1F790907D02109169
:104940007E0200917F02A0908002B09081021092BE
:104950007E0210927F021092800210928102812FBB
:10496000802B09F445C080917A0290917B020E94CD
:1049700023139C0190917502992309F405C22531F6
:104980003105B0F19F3F19F09F5F9093750211239D
:1049900059F00E94DB079FEF11160CF491E0899FFC
:1049A000802D112480937E02002359F00E94DB07A2
:1049B00091E010160CF09FEF899F802D11248093B9
:1049C0007F0280917E02882399F080907F02882068
:1049D00079F00E94FB07882309F4AEC180937E0220
:1049E000882D0E94FB07882309F4A8C180937F02C9
:1049F0008B2D8A2909F445C0809178029091790223
:104A00000E9423139C0190917602992309F4B7C167
:104A100021353105B0F19F3F19F09F5F90937602E9
:104A2000AA2059F00E94B9079FEF1A140CF491E0E4
:104A3000899F802D112480938002BB2059F00E9411
:104A4000B90791E01B140CF09FEF899F802D112472
:104A50008093810280918002882399F0A090810246
:104A6000AA2079F00E94FB07882309F469C180938A
:104A700080028A2D0E94FB07882309F463C180937A
:104A8000810280917D02891117C080917E02882366
:104A900011F0181311C020917F02222311F002138C
:104AA0000BC090918102992311F09B1105C03091A8
:104AB0008002332309F45EC10E943E1386E0FE01AA
:104AC0003196ACE7B2E001900D928A95E1F70E9431
:104AD000D00D90917402891709F4C4CD80937402AB
:104AE0000E94E806BFCD8DE392E0BBCE87E392E063
:104AF000B8CE80E392E0B5CE50922A0140922901CF
:104B000080E280934B02712C612C10924A0255E492
:104B1000852E52E0952E60E4A62E62E0B62E84012A
:104B2000C301B201A70196010E94DC29605D6033D8
:104B300019F48016910631F0411451046104710496
:104B400009F460E2D80114966C93C301B201A70185
:104B500096010E94DC2929013A0101501109A01691
:104B6000B106F1F6A3CED8018D918D010E94960B6E
:104B7000ABCE8BE592E00E94160CB2CE809134034E
:104B8000882309F4B4CE809171028111B0CE0E94C5
:104B9000400E2091AF033091B0032115310509F487
:104BA000A6CE80E041E050E0482E512C1A01082E9C
:104BB00002C0220C331C0A94E2F7B1016223732372
:104BC000672B11F48F5FF0CF9091700290FF9AC025
:104BD000880F880F880F80932E0110923101895F12
:104BE00080932F0183E08093320124E630E047E098
:104BF00050E06CE271E088E70E946927892B09F098
:104C000076CE95E0440C551C9A95E1F780917002A0
:104C100080FF8AC0E0E5F2E080E2DF011D928A9524
:104C2000E9F7E2E8F1E0F98BE88B4EE751E087E045
:104C3000A82E99249394A889B9896D91B98BA88BD2
:104C4000FA018191AF01840D952D911D9C012F5486
:104C50003C4F3F872E87E62FF0E0E05BFD4F90E072
:104C600080E06A2C681AB92C082E01C0BB0C0A948B
:104C7000EAF76E857F8500E0DB011D91BD011B21F8
:104C8000262D201B2770822E022E000C330BB12FF5
:104C900001C0BB0F8A94EAF78B2E3195219531091B
:104CA0002770332701C016952A95EAF7812A1081CB
:104CB000812A80820F5F0830F9F60196319688309C
:104CC000910579F6E889F989E658F14009F0B3CF02
:104CD00004E610E020E230E040E552E060E488E7DE
:104CE0000E948A27892B09F002CE2094309480916B
:104CF000AF039091B003282239223092B003209262
:104D0000AF03F5CD8295880F807680932E019201B6
:104D1000369527953695279520933101815E8093AE
:104D20002F012093320161CFA2014F545C4F04E662
:104D300010E020E230E0D2CF81E050CE81E056CECC
:104D400081E095CE81E09BCE09BD19BD09B400FE7E
:104D5000FDCF8091D8008F7D8093D8008091E000B6
:104D600082608093E0008091E00081FDFCCF0E9492
:104D700065130DCD822B892B09F4A0CE9DCE2B304F
:104D8000310508F04ACE7DCE2B30310508F0FCCD40
:104D90002FCE1092B9008CE08093B8000895B0E057
:104DA000A0E0E5EDF6E20C948C29B82EEB010E9410
:104DB00032136C01EE24E394F12CC431D10560F080
:104DC00025E0E22EF12CCF3FDC0731F0CE0164E18B
:104DD00070E00E9471297B0184EAA82E94E8992E44
:104DE0001092BC00A092BC000E9432138C018091F2
:104DF000BC0087FF0DC08091B900887F8830F9F032
:104E00008091B900887F8031D1F00FEF1FEF08C08B
:104E1000C8010E942313E816F90648F70EEF1FEFAA
:104E2000CF3FDC07E9F2C6010E942313C817D90758
:104E3000B8F6C801CDB7DEB7EBE00C94A829B09264
:104E4000BB009092BC000E9432138C018091BC0088
:104E500087FF0AC08091B900887F883111F08034C3
:104E6000A1F610E000E0E5CFC8010E942313E81688
:104E7000F90660F7D3CF0F931F93CF93DF93EB0126
:104E80008093BB0084E88093BC000E9432138C01A5
:104E90008091BC0087FF11C02091B900287F81E07C
:104EA00090E0283211F490E080E09195819591098D
:104EB000DF91CF911F910F910895CF3FDC0741F310
:104EC000C8010E942313C817D90710F78EEF9FEF70
:104ED000EFCFB0E0A0E0EFE6F7E20C948F296B0192
:104EE0008A017901B9010E94CF26E6010C0D1D1D32
:104EF000C017D10711F097FF08C024E92093BC0028
:104F0000CDB7DEB7E8E00C94AB29B70189910E94D8
:104F10003B27EECFB0E0A0E0E0E9F7E20C948F2968
:104F2000C62F6A017901B8010E94CF2697FD0CC0F7
:104F3000B8018C2F0E943B27E601EC0CFD1CCE151E
:104F4000DF0511F097FF08C024E92093BC00CDB71E
:104F5000DEB7E8E00C94AB29B80189910E943B27A9
:104F6000EECF84E98093BC0008958EE14A9B02C095
:104F70008150E1F74A9BFECF08955A9880E28A95C6
:104F8000F1F75A9A0895FC013BE03A95F1F798E061
:104F900020E080E031E040E14A95F1F7880F4A9B3C
:104FA00002C08160232742E04A95F1F7000040E10A
:104FB0004A95F1F7915079F790E19A95F1F799B107
:104FC00032E03A95F1F7000040E14A95F1F792FBA3
:104FD000992790F992272081920F90830895A1E05C
:104FE000B0E0E5EFF7E20C94912919828C017C0185
:104FF000E60EF11C0E151F0541F481E09981911117
:1050000080E02196E6E00C94AD290E94B527CE0100
:1050100001960E94C327F80181938F01EBCF529A2A
:105020005A9A089552985A9AEA9AE9E6F0E08081ED
:105030008F7C808308956150770B91E001C0990FB8
:105040006A95EAF720E031E0911108C0222391F03F
:105050005A9A80E28A95F1F75A980895492F482381
:1050600039F05A9A232740E24A95F1F79695ECCF0A
:105070005A98F9CF5A98EDCFFF920F931F93CF9381
:10508000DF93EC018C01060F111DC017D10729F425
:10509000CDB7DEB7E5E00C94AE29F9900E94BD27AC
:1050A00068E08F2D0E941B28F0CF1F920F920FB641
:1050B0000F9211240F931F932F933F934F935F935E
:1050C0006F937F938F939F93AF93BF93EF93FF93D0
:1050D000CF93DF930F92CDB7DEB719820E94B52729
:1050E000CE0101960E94C327082F069506950695C6
:1050F000282F22952570902F9570290F922F93704D
:1051000026952695920F982797708981982B09F0FC
:105110005CC0053008F059C080E18A95F1F75A9AD1
:10512000529A82E08A95F1F700C05A9888E0089F69
:1051300080011124D801A050BF4F1696ED91FC912B
:1051400017973097A9F060917201709173011496CE
:105150002D913C911597260F371F11968D919C919B
:105160001297680F791F13964C9113978C9109959C
:10517000F801E050FF4F6381662351F020917201E6
:105180003091730184819581820F931F0E943C2886
:105190000E94BD2780E18A95F1F75A9852985A9A51
:1051A00080E18A95F1F7F801E050FF4F60816623B6
:1051B00051F0209172013091730181819281820FAF
:1051C000931F0E94EF270E94B5270F90DF91CF9188
:1051D000FF91EF91BF91AF919F918F917F916F91CF
:1051E0005F914F913F912F911F910F910F900FBEA3
:1051F0000F901F9018950F931F93CF93DF93EC019F
:1052000005970CF04CC0F894529A5A9885E08A950C
:10521000F1F700009C2F969595708C2F8570980F54
:10522000892F83709695969523E0CC0FDD1F2A95E4
:10523000E1F7980F8E01092B0E94BD2700C068E09E
:10524000802F0E941B2880E18A95F1F752985A9A84
:105250004A9B1EC087E090E04A991CC0FE01E050C6
:10526000FF4F63816623F9F0209172013091730141
:1052700084819581820F931F0E94EF27811113C0B3
:10528000529A5A9A7894DF91CF911F910F91089575
:1052900000C0DECF019729F4529A5A9A789480E0A0
:1052A000F2CF00C0D9CF0E94B52780E28A95F1F7EE
:1052B0005A98529A80E18A95F1F7C050DF4F688181
:1052C000662351F0209172013091730189819A8196
:1052D000820F931F0E943C280E94BD27789481E092
:1052E000D2CFAA1BBB1B51E107C0AA1FBB1FA61729
:1052F000B70710F0A61BB70B881F991F5A95A9F77F
:1053000080959095BC01CD0108952F923F924F92C8
:105310005F926F927F928F929F92AF92BF92CF9245
:10532000DF92EF92FF920F931F93CF93DF93CDB74E
:10533000DEB7CA1BDB0B0FB6F894DEBF0FBECDBFC6
:1053400009942A88398848885F846E847D848C8497
:105350009B84AA84B984C884DF80EE80FD800C81A0
:105360001B81AA81B981CE0FD11D0FB6F894DEBF83
:105370000FBECDBFED010895991B79E004C0991FC0
:10538000961708F0961B881F7A95C9F7809508959F
:1053900097FB072E16F4009407D077FD09D00E94E2
:1053A000712907FC05D03EF4909581959F4F089593
:1053B000709561957F4F0895A1E21A2EAA1BBB1B21
:1053C000FD010DC0AA1FBB1FEE1FFF1FA217B307D1
:1053D000E407F50720F0A21BB30BE40BF50B661FE7
:1053E000771F881F991F1A9469F7609570958095AB
:1053F00090959B01AC01BD01CF010895EE0FFF1FF9
:105400000590F491E02D0994002E083090F0982F2B
:10541000872F762F652F542F432F322F22270850A6
:10542000F4CF220F331F441F551F661F771F881F9D
:10543000991F0A95B2F7002D089597FD1094002E3C
:10544000083098F00850232F342F452F562F672F00
:10545000782F892F912DF4CF15949795879577956F
:10546000679557954795379527950A95AAF711247B
:10547000002D0895FB01DC0102C005900D92415002
:105480005040D8F70895FB01DC0104C08D910190D4
:10549000801921F441505040C8F7881B990B08959A
:1054A000FB01DC0102C001900D9241505040D8F741
:1054B0000895F999FECF92BD81BDF89A992780B5DC
:1054C0000895A6E1B0E044E050E00C94A32AA8E1DE
:1054D000B0E042E050E00C94A32ADC01A40FB51F19
:1054E0004150504048F0CB01840F951F2E910E94EF
:1054F0007E2A41505040D0F70895262FF999FECFCB
:1055000092BD81BDF89A019700B4021639F01FBA16
:1055100020BD0FB6F894FA9AF99A0FBE0895039633
:10552000272F0E947E2A0E947D2A252F0E947E2AF4
:10553000242F0C947E2A0196272F0E947E2A0C94F9
:105540007D2ADC01CB01FC01F999FECF06C0F2BD3A
:10555000E1BDF89A319600B40D9241505040B8F731
:105560000895F894FFCF73149B1433169B143316CD
:10557000CE14EF143316EC15F915FD180119DF18C8
:10558000F918051909190D196419D9196C19361961
:105590003A1970193E19741980194A19D2194E19FD
:1055A000841952198819B01956198C19B7195C1930
:1055B00092199A194219781946197C196019961985
:1055C000A619C019D01930196819E019E61AE61A97
:1055D0001E1B1E1BC71BE31B461B461BE81B701C28
:1055E0007F1C7F1C531A7B1A821A871A8C1A911AF5
:1055F000961A9B1AA01AA51AAA1AAF1AE518E51846
:0E560000E518E518E518E518E518E518E518B1
:10560E000000000100000000000000040100000086
:10561E0004050000000000000B090000000000005F
:10562E0001D4060B0D040DFD0CFF00200021007FA0
:10563E00220003003600363601818283E200E90043
:10564E00EA00B500B600B700CD008301CC008A0198
:10565E00920194012102230224022502260227022E
:10566E002A02B300B4006F0070009F01CB019F02AD
:10567E00A0020A02946697C6F4F5F6F731330008D5
:08568E001018181008000001BB
:00000001FF
